{
  "contractName": "EmployeeAttendance",
  "abi": [
    {
      "inputs": [
        {
          "internalType": "uint256",
          "name": "empID",
          "type": "uint256"
        },
        {
          "internalType": "string",
          "name": "firstName",
          "type": "string"
        },
        {
          "internalType": "string",
          "name": "lastName",
          "type": "string"
        },
        {
          "internalType": "string",
          "name": "emailAddress",
          "type": "string"
        },
        {
          "internalType": "string",
          "name": "department",
          "type": "string"
        },
        {
          "internalType": "string",
          "name": "designation",
          "type": "string"
        }
      ],
      "name": "addEmployee",
      "outputs": [],
      "stateMutability": "nonpayable",
      "type": "function"
    },
    {
      "inputs": [
        {
          "internalType": "uint256",
          "name": "empID",
          "type": "uint256"
        }
      ],
      "name": "getEmployee",
      "outputs": [
        {
          "internalType": "string",
          "name": "firstName",
          "type": "string"
        },
        {
          "internalType": "string",
          "name": "lastName",
          "type": "string"
        },
        {
          "internalType": "string",
          "name": "emailAddress",
          "type": "string"
        },
        {
          "internalType": "string",
          "name": "department",
          "type": "string"
        },
        {
          "internalType": "string",
          "name": "designation",
          "type": "string"
        }
      ],
      "stateMutability": "view",
      "type": "function"
    }
  ],
  "bytecode": "0x608060405234801561001057600080fd5b50610bdc806100206000396000f3fe608060405234801561001057600080fd5b50600436106100365760003560e01c806333df00a81461003b578063bca9a5c514610057575b600080fd5b6100556004803603810190610050919061085a565b61008b565b005b610071600480360381019061006c9190610973565b61018e565b604051610082959493929190610a28565b60405180910390f35b60006040518060c00160405280888152602001878152602001868152602001858152602001848152602001838152509050600081908060018154018082558091505060019003906000526020600020906006020160009091909190915060008201518160000155602082015181600101908051906020019061010e929190610627565b50604082015181600201908051906020019061012b929190610627565b506060820151816003019080519060200190610148929190610627565b506080820151816004019080519060200190610165929190610627565b5060a0820151816005019080519060200190610182929190610627565b50505050505050505050565b606080606080606060005b6000805490508110156105045760008082815481106101bb576101ba610a9e565b5b90600052602060002090600602016040518060c0016040529081600082015481526020016001820180546101ee90610afc565b80601f016020809104026020016040519081016040528092919081815260200182805461021a90610afc565b80156102675780601f1061023c57610100808354040283529160200191610267565b820191906000526020600020905b81548152906001019060200180831161024a57829003601f168201915b5050505050815260200160028201805461028090610afc565b80601f01602080910402602001604051908101604052809291908181526020018280546102ac90610afc565b80156102f95780601f106102ce576101008083540402835291602001916102f9565b820191906000526020600020905b8154815290600101906020018083116102dc57829003601f168201915b5050505050815260200160038201805461031290610afc565b80601f016020809104026020016040519081016040528092919081815260200182805461033e90610afc565b801561038b5780601f106103605761010080835404028352916020019161038b565b820191906000526020600020905b81548152906001019060200180831161036e57829003601f168201915b505050505081526020016004820180546103a490610afc565b80601f01602080910402602001604051908101604052809291908181526020018280546103d090610afc565b801561041d5780601f106103f25761010080835404028352916020019161041d565b820191906000526020600020905b81548152906001019060200180831161040057829003601f168201915b5050505050815260200160058201805461043690610afc565b80601f016020809104026020016040519081016040528092919081815260200182805461046290610afc565b80156104af5780601f10610484576101008083540402835291602001916104af565b820191906000526020600020905b81548152906001019060200180831161049257829003601f168201915b505050505081525050905087816000015114156104f05780602001518160400151826060015183608001518460a0015196509650965096509650505061061e565b5080806104fc90610b5d565b915050610199565b6040518060400160405280600981526020017f4e6f7420466f756e6400000000000000000000000000000000000000000000008152506040518060400160405280600981526020017f4e6f7420466f756e6400000000000000000000000000000000000000000000008152506040518060400160405280600981526020017f4e6f7420466f756e6400000000000000000000000000000000000000000000008152506040518060400160405280600981526020017f4e6f7420466f756e6400000000000000000000000000000000000000000000008152506040518060400160405280600981526020017f4e6f7420466f756e64000000000000000000000000000000000000000000000081525095509550955095509550505b91939590929450565b82805461063390610afc565b90600052602060002090601f016020900481019282610655576000855561069c565b82601f1061066e57805160ff191683800117855561069c565b8280016001018555821561069c579182015b8281111561069b578251825591602001919060010190610680565b5b5090506106a991906106ad565b5090565b5b808211156106c65760008160009055506001016106ae565b5090565b6000604051905090565b600080fd5b600080fd5b6000819050919050565b6106f1816106de565b81146106fc57600080fd5b50565b60008135905061070e816106e8565b92915050565b600080fd5b600080fd5b6000601f19601f8301169050919050565b7f4e487b7100000000000000000000000000000000000000000000000000000000600052604160045260246000fd5b6107678261071e565b810181811067ffffffffffffffff821117156107865761078561072f565b5b80604052505050565b60006107996106ca565b90506107a5828261075e565b919050565b600067ffffffffffffffff8211156107c5576107c461072f565b5b6107ce8261071e565b9050602081019050919050565b82818337600083830152505050565b60006107fd6107f8846107aa565b61078f565b90508281526020810184848401111561081957610818610719565b5b6108248482856107db565b509392505050565b600082601f83011261084157610840610714565b5b81356108518482602086016107ea565b91505092915050565b60008060008060008060c08789031215610877576108766106d4565b5b600061088589828a016106ff565b965050602087013567ffffffffffffffff8111156108a6576108a56106d9565b5b6108b289828a0161082c565b955050604087013567ffffffffffffffff8111156108d3576108d26106d9565b5b6108df89828a0161082c565b945050606087013567ffffffffffffffff811115610900576108ff6106d9565b5b61090c89828a0161082c565b935050608087013567ffffffffffffffff81111561092d5761092c6106d9565b5b61093989828a0161082c565b92505060a087013567ffffffffffffffff81111561095a576109596106d9565b5b61096689828a0161082c565b9150509295509295509295565b600060208284031215610989576109886106d4565b5b6000610997848285016106ff565b91505092915050565b600081519050919050565b600082825260208201905092915050565b60005b838110156109da5780820151818401526020810190506109bf565b838111156109e9576000848401525b50505050565b60006109fa826109a0565b610a0481856109ab565b9350610a148185602086016109bc565b610a1d8161071e565b840191505092915050565b600060a0820190508181036000830152610a4281886109ef565b90508181036020830152610a5681876109ef565b90508181036040830152610a6a81866109ef565b90508181036060830152610a7e81856109ef565b90508181036080830152610a9281846109ef565b90509695505050505050565b7f4e487b7100000000000000000000000000000000000000000000000000000000600052603260045260246000fd5b7f4e487b7100000000000000000000000000000000000000000000000000000000600052602260045260246000fd5b60006002820490506001821680610b1457607f821691505b60208210811415610b2857610b27610acd565b5b50919050565b7f4e487b7100000000000000000000000000000000000000000000000000000000600052601160045260246000fd5b6000610b68826106de565b91507fffffffffffffffffffffffffffffffffffffffffffffffffffffffffffffffff821415610b9b57610b9a610b2e565b5b60018201905091905056fea2646970667358221220dc6b3af4155332d51c92d102d95d01e33a0bdfb3701fe02e4080d3634dc30ba664736f6c634300080a0033",
  "immutableReferences": {},
  "source": "// SPDX-License-Identifier: MIT\r\npragma solidity ^0.8.10;\r\n\r\ncontract EmployeeAttendance {\r\n  \r\n  // Employee struct to save data for each employee\r\n  struct Employee {\r\n    uint empID;\r\n    string firstName;\r\n    string lastName;\r\n    string emailAddress;\r\n    string department;\r\n    string designation;\r\n  }\r\n  \r\n  // struct array to hold all employee data\r\n  Employee[] employees;\r\n\r\n  // Adds an Employee with its details to employees array\r\n  function addEmployee(\r\n    uint empID,\r\n    string memory firstName,\r\n    string memory lastName,\r\n    string memory emailAddress,\r\n    string memory department,\r\n    string memory designation\r\n  ) public {\r\n    \r\n    // create new employee struct\r\n    Employee memory newEmployee = Employee(\r\n      empID,\r\n      firstName,\r\n      lastName,\r\n      emailAddress,\r\n      department,\r\n      designation\r\n    );\r\n    \r\n    // add employee to total list\r\n    employees.push(newEmployee);\r\n  }\r\n\r\n  function getEmployee(uint empID) public view returns (\r\n    string memory firstName, \r\n    string memory lastName,\r\n    string memory emailAddress,\r\n    string memory department, \r\n    string memory designation) {\r\n    // iterate over employees array\r\n    uint i;\r\n    for (i=0; i<employees.length; i++){\r\n      Employee memory e = employees[i];\r\n      // Check if employee with empID exists\r\n      if (e.empID == empID){\r\n        // Return the contents of the array\r\n        return(e.firstName, e.lastName, e.emailAddress, e.department, e.designation);\r\n      }\r\n    }\r\n    // If no match of employee, returns employee not found\r\n    return(\"Not Found\", \"Not Found\", \"Not Found\", \"Not Found\", \"Not Found\");\r\n  }\r\n}",
  "sourcePath": "D:\\Softwate Dev Projects\\HR-Blockchain\\blockchain\\contracts\\EmployeeAttendance.sol",
  "compiler": {
    "name": "solc",
    "version": "0.8.10+commit.fc410830.Emscripten.clang"
  },
  "schemaVersion": "3.4.3",
  "updatedAt": "2021-12-03T11:21:06.773Z",
  "devdoc": {
    "kind": "dev",
    "methods": {},
    "version": 1
  },
  "userdoc": {
    "kind": "user",
    "methods": {},
    "version": 1
  }
}