{
  "contractName": "EmployeeAttendance",
  "abi": [
    {
      "inputs": [
        {
          "internalType": "uint256",
          "name": "",
          "type": "uint256"
        }
      ],
      "name": "employees",
      "outputs": [
        {
          "internalType": "int256",
          "name": "empID",
          "type": "int256"
        },
        {
          "internalType": "string",
          "name": "userName",
          "type": "string"
        }
      ],
      "stateMutability": "view",
      "type": "function",
      "constant": true
    },
    {
      "inputs": [
        {
          "internalType": "int256",
          "name": "_empID",
          "type": "int256"
        },
        {
          "internalType": "string",
          "name": "_userName",
          "type": "string"
        }
      ],
      "name": "addEmployee",
      "outputs": [],
      "stateMutability": "nonpayable",
      "type": "function"
    },
    {
      "inputs": [],
      "name": "getEmployees",
      "outputs": [
        {
          "components": [
            {
              "internalType": "int256",
              "name": "empID",
              "type": "int256"
            },
            {
              "internalType": "string",
              "name": "userName",
              "type": "string"
            }
          ],
          "internalType": "struct EmployeeAttendance.Employee[]",
          "name": "",
          "type": "tuple[]"
        }
      ],
      "stateMutability": "view",
      "type": "function",
      "constant": true
    }
  ],
  "bytecode": "0x608060405234801561001057600080fd5b5061080e806100206000396000f3fe608060405234801561001057600080fd5b50600436106100415760003560e01c80632e94b998146100465780634739326b146100625780634abefa3614610093575b600080fd5b610060600480360381019061005b9190610462565b6100b1565b005b61007c600480360381019061007791906104f8565b610163565b60405161008a9291906105cd565b60405180910390f35b61009b61021f565b6040516100a89190610755565b60405180910390f35b6000604051806040016040528085815260200184848080601f016020809104026020016040519081016040528093929190818152602001838380828437600081840152601f19601f82011690508083019250505050505050815250908060018154018082558091505060019003906000526020600020906002020160009091909190915060008201518160000155602082015181600101908051906020019061015b92919061031a565b505050505050565b6000818154811061017357600080fd5b906000526020600020906002020160009150905080600001549080600101805461019c906107a6565b80601f01602080910402602001604051908101604052809291908181526020018280546101c8906107a6565b80156102155780601f106101ea57610100808354040283529160200191610215565b820191906000526020600020905b8154815290600101906020018083116101f857829003601f168201915b5050505050905082565b60606000805480602002602001604051908101604052809291908181526020016000905b82821015610311578382906000526020600020906002020160405180604001604052908160008201548152602001600182018054610280906107a6565b80601f01602080910402602001604051908101604052809291908181526020018280546102ac906107a6565b80156102f95780601f106102ce576101008083540402835291602001916102f9565b820191906000526020600020905b8154815290600101906020018083116102dc57829003601f168201915b50505050508152505081526020019060010190610243565b50505050905090565b828054610326906107a6565b90600052602060002090601f016020900481019282610348576000855561038f565b82601f1061036157805160ff191683800117855561038f565b8280016001018555821561038f579182015b8281111561038e578251825591602001919060010190610373565b5b50905061039c91906103a0565b5090565b5b808211156103b95760008160009055506001016103a1565b5090565b600080fd5b600080fd5b6000819050919050565b6103da816103c7565b81146103e557600080fd5b50565b6000813590506103f7816103d1565b92915050565b600080fd5b600080fd5b600080fd5b60008083601f840112610422576104216103fd565b5b8235905067ffffffffffffffff81111561043f5761043e610402565b5b60208301915083600182028301111561045b5761045a610407565b5b9250929050565b60008060006040848603121561047b5761047a6103bd565b5b6000610489868287016103e8565b935050602084013567ffffffffffffffff8111156104aa576104a96103c2565b5b6104b68682870161040c565b92509250509250925092565b6000819050919050565b6104d5816104c2565b81146104e057600080fd5b50565b6000813590506104f2816104cc565b92915050565b60006020828403121561050e5761050d6103bd565b5b600061051c848285016104e3565b91505092915050565b61052e816103c7565b82525050565b600081519050919050565b600082825260208201905092915050565b60005b8381101561056e578082015181840152602081019050610553565b8381111561057d576000848401525b50505050565b6000601f19601f8301169050919050565b600061059f82610534565b6105a9818561053f565b93506105b9818560208601610550565b6105c281610583565b840191505092915050565b60006040820190506105e26000830185610525565b81810360208301526105f48184610594565b90509392505050565b600081519050919050565b600082825260208201905092915050565b6000819050602082019050919050565b610632816103c7565b82525050565b600082825260208201905092915050565b600061065482610534565b61065e8185610638565b935061066e818560208601610550565b61067781610583565b840191505092915050565b600060408301600083015161069a6000860182610629565b50602083015184820360208601526106b28282610649565b9150508091505092915050565b60006106cb8383610682565b905092915050565b6000602082019050919050565b60006106eb826105fd565b6106f58185610608565b93508360208202850161070785610619565b8060005b85811015610743578484038952815161072485826106bf565b945061072f836106d3565b925060208a0199505060018101905061070b565b50829750879550505050505092915050565b6000602082019050818103600083015261076f81846106e0565b905092915050565b7f4e487b7100000000000000000000000000000000000000000000000000000000600052602260045260246000fd5b600060028204905060018216806107be57607f821691505b602082108114156107d2576107d1610777565b5b5091905056fea2646970667358221220a81cc4a9c0b97c4cb9c1f404286124ffe49913e597778e049271bd2f3b9a67a464736f6c634300080a0033",
  "immutableReferences": {},
  "source": "// SPDX-License-Identifier: MIT\r\npragma solidity ^0.8.10;\r\n\r\n// Smart contracts saves the record of new employee with the following details:\r\n// Employee ID, First Name, Last Name, Email Address, Department, and Designation.\r\n// Smart contract allows to the details of employee to be read by supplying\r\n// Employee ID.\r\ncontract EmployeeAttendance {\r\n    \r\n    // Struct for employee data\r\n    struct Employee{\r\n        int empID;\r\n        string userName;\r\n    }\r\n\r\n    // Dynamic struct array to hold all employees data\r\n    // Solidity automatically creates getter for public sotrage arrays\r\n    Employee[] public employees;\r\n\r\n    // Adds an Employee with its details to employees array\r\n    function addEmployee(int _empID, string calldata _userName) public {\r\n        // Add employee to total list\r\n        employees.push(Employee({empID: _empID, userName: _userName}));\r\n    }\r\n\r\n    function getEmployees() public view returns(Employee[] memory){\r\n        return (employees);\r\n    }\r\n}",
  "sourcePath": "D:\\Softwate Dev Projects\\HR-Blockchain\\blockchain\\contracts\\EmployeeAttendance.sol",
  "compiler": {
    "name": "solc",
    "version": "0.8.10+commit.fc410830.Emscripten.clang"
  },
  "schemaVersion": "3.4.3",
  "updatedAt": "2021-12-09T11:29:41.004Z",
  "networkType": "ethereum",
  "devdoc": {
    "kind": "dev",
    "methods": {},
    "version": 1
  },
  "userdoc": {
    "kind": "user",
    "methods": {},
    "version": 1
  }
}