{
  "contractName": "EmployeeAttendance",
  "abi": [
    {
      "inputs": [
        {
          "internalType": "uint256",
          "name": "",
          "type": "uint256"
        }
      ],
      "name": "employees",
      "outputs": [
        {
          "internalType": "int256",
          "name": "empID",
          "type": "int256"
        },
        {
          "internalType": "string",
          "name": "userName",
          "type": "string"
        },
        {
          "internalType": "string",
          "name": "firstName",
          "type": "string"
        },
        {
          "internalType": "string",
          "name": "lastName",
          "type": "string"
        },
        {
          "internalType": "string",
          "name": "email",
          "type": "string"
        },
        {
          "internalType": "string",
          "name": "department",
          "type": "string"
        },
        {
          "internalType": "string",
          "name": "designation",
          "type": "string"
        }
      ],
      "stateMutability": "view",
      "type": "function",
      "constant": true
    },
    {
      "inputs": [
        {
          "internalType": "int256",
          "name": "_empID",
          "type": "int256"
        },
        {
          "internalType": "string",
          "name": "_userName",
          "type": "string"
        },
        {
          "internalType": "string",
          "name": "_firstName",
          "type": "string"
        },
        {
          "internalType": "string",
          "name": "_lastName",
          "type": "string"
        },
        {
          "internalType": "string",
          "name": "_email",
          "type": "string"
        },
        {
          "internalType": "string",
          "name": "_department",
          "type": "string"
        },
        {
          "internalType": "string",
          "name": "_designation",
          "type": "string"
        }
      ],
      "name": "addEmployee",
      "outputs": [],
      "stateMutability": "nonpayable",
      "type": "function"
    },
    {
      "inputs": [],
      "name": "getEmployees",
      "outputs": [
        {
          "components": [
            {
              "internalType": "int256",
              "name": "empID",
              "type": "int256"
            },
            {
              "internalType": "string",
              "name": "userName",
              "type": "string"
            },
            {
              "internalType": "string",
              "name": "firstName",
              "type": "string"
            },
            {
              "internalType": "string",
              "name": "lastName",
              "type": "string"
            },
            {
              "internalType": "string",
              "name": "email",
              "type": "string"
            },
            {
              "internalType": "string",
              "name": "department",
              "type": "string"
            },
            {
              "internalType": "string",
              "name": "designation",
              "type": "string"
            }
          ],
          "internalType": "struct EmployeeAttendance.Employee[]",
          "name": "",
          "type": "tuple[]"
        }
      ],
      "stateMutability": "view",
      "type": "function",
      "constant": true
    }
  ],
  "bytecode": "0x608060405234801561001057600080fd5b506110d1806100206000396000f3fe608060405234801561001057600080fd5b50600436106100415760003560e01c80634739326b146100465780634abefa361461007c5780639c0a93bf1461009a575b600080fd5b610060600480360381019061005b9190610a1b565b6100b6565b6040516100739796959493929190610afa565b60405180910390f35b610084610438565b6040516100919190610d6d565b60405180910390f35b6100b460048036038101906100af9190610ef0565b61080d565b005b600081815481106100c657600080fd5b90600052602060002090600702016000915090508060000154908060010180546100ef90611069565b80601f016020809104026020016040519081016040528092919081815260200182805461011b90611069565b80156101685780601f1061013d57610100808354040283529160200191610168565b820191906000526020600020905b81548152906001019060200180831161014b57829003601f168201915b50505050509080600201805461017d90611069565b80601f01602080910402602001604051908101604052809291908181526020018280546101a990611069565b80156101f65780601f106101cb576101008083540402835291602001916101f6565b820191906000526020600020905b8154815290600101906020018083116101d957829003601f168201915b50505050509080600301805461020b90611069565b80601f016020809104026020016040519081016040528092919081815260200182805461023790611069565b80156102845780601f1061025957610100808354040283529160200191610284565b820191906000526020600020905b81548152906001019060200180831161026757829003601f168201915b50505050509080600401805461029990611069565b80601f01602080910402602001604051908101604052809291908181526020018280546102c590611069565b80156103125780601f106102e757610100808354040283529160200191610312565b820191906000526020600020905b8154815290600101906020018083116102f557829003601f168201915b50505050509080600501805461032790611069565b80601f016020809104026020016040519081016040528092919081815260200182805461035390611069565b80156103a05780601f10610375576101008083540402835291602001916103a0565b820191906000526020600020905b81548152906001019060200180831161038357829003601f168201915b5050505050908060060180546103b590611069565b80601f01602080910402602001604051908101604052809291908181526020018280546103e190611069565b801561042e5780601f106104035761010080835404028352916020019161042e565b820191906000526020600020905b81548152906001019060200180831161041157829003601f168201915b5050505050905087565b60606000805480602002602001604051908101604052809291908181526020016000905b8282101561080457838290600052602060002090600702016040518060e00160405290816000820154815260200160018201805461049990611069565b80601f01602080910402602001604051908101604052809291908181526020018280546104c590611069565b80156105125780601f106104e757610100808354040283529160200191610512565b820191906000526020600020905b8154815290600101906020018083116104f557829003601f168201915b5050505050815260200160028201805461052b90611069565b80601f016020809104026020016040519081016040528092919081815260200182805461055790611069565b80156105a45780601f10610579576101008083540402835291602001916105a4565b820191906000526020600020905b81548152906001019060200180831161058757829003601f168201915b505050505081526020016003820180546105bd90611069565b80601f01602080910402602001604051908101604052809291908181526020018280546105e990611069565b80156106365780601f1061060b57610100808354040283529160200191610636565b820191906000526020600020905b81548152906001019060200180831161061957829003601f168201915b5050505050815260200160048201805461064f90611069565b80601f016020809104026020016040519081016040528092919081815260200182805461067b90611069565b80156106c85780601f1061069d576101008083540402835291602001916106c8565b820191906000526020600020905b8154815290600101906020018083116106ab57829003601f168201915b505050505081526020016005820180546106e190611069565b80601f016020809104026020016040519081016040528092919081815260200182805461070d90611069565b801561075a5780601f1061072f5761010080835404028352916020019161075a565b820191906000526020600020905b81548152906001019060200180831161073d57829003601f168201915b5050505050815260200160068201805461077390611069565b80601f016020809104026020016040519081016040528092919081815260200182805461079f90611069565b80156107ec5780601f106107c1576101008083540402835291602001916107ec565b820191906000526020600020905b8154815290600101906020018083116107cf57829003601f168201915b5050505050815250508152602001906001019061045c565b50505050905090565b60006040518060e0016040528089815260200188815260200187815260200186815260200185815260200184815260200183815250908060018154018082558091505060019003906000526020600020906007020160009091909190915060008201518160000155602082015181600101908051906020019061089192919061092e565b5060408201518160020190805190602001906108ae92919061092e565b5060608201518160030190805190602001906108cb92919061092e565b5060808201518160040190805190602001906108e892919061092e565b5060a082015181600501908051906020019061090592919061092e565b5060c082015181600601908051906020019061092292919061092e565b50505050505050505050565b82805461093a90611069565b90600052602060002090601f01602090048101928261095c57600085556109a3565b82601f1061097557805160ff19168380011785556109a3565b828001600101855582156109a3579182015b828111156109a2578251825591602001919060010190610987565b5b5090506109b091906109b4565b5090565b5b808211156109cd5760008160009055506001016109b5565b5090565b6000604051905090565b600080fd5b600080fd5b6000819050919050565b6109f8816109e5565b8114610a0357600080fd5b50565b600081359050610a15816109ef565b92915050565b600060208284031215610a3157610a306109db565b5b6000610a3f84828501610a06565b91505092915050565b6000819050919050565b610a5b81610a48565b82525050565b600081519050919050565b600082825260208201905092915050565b60005b83811015610a9b578082015181840152602081019050610a80565b83811115610aaa576000848401525b50505050565b6000601f19601f8301169050919050565b6000610acc82610a61565b610ad68185610a6c565b9350610ae6818560208601610a7d565b610aef81610ab0565b840191505092915050565b600060e082019050610b0f600083018a610a52565b8181036020830152610b218189610ac1565b90508181036040830152610b358188610ac1565b90508181036060830152610b498187610ac1565b90508181036080830152610b5d8186610ac1565b905081810360a0830152610b718185610ac1565b905081810360c0830152610b858184610ac1565b905098975050505050505050565b600081519050919050565b600082825260208201905092915050565b6000819050602082019050919050565b610bc881610a48565b82525050565b600082825260208201905092915050565b6000610bea82610a61565b610bf48185610bce565b9350610c04818560208601610a7d565b610c0d81610ab0565b840191505092915050565b600060e083016000830151610c306000860182610bbf565b5060208301518482036020860152610c488282610bdf565b91505060408301518482036040860152610c628282610bdf565b91505060608301518482036060860152610c7c8282610bdf565b91505060808301518482036080860152610c968282610bdf565b91505060a083015184820360a0860152610cb08282610bdf565b91505060c083015184820360c0860152610cca8282610bdf565b9150508091505092915050565b6000610ce38383610c18565b905092915050565b6000602082019050919050565b6000610d0382610b93565b610d0d8185610b9e565b935083602082028501610d1f85610baf565b8060005b85811015610d5b5784840389528151610d3c8582610cd7565b9450610d4783610ceb565b925060208a01995050600181019050610d23565b50829750879550505050505092915050565b60006020820190508181036000830152610d878184610cf8565b905092915050565b610d9881610a48565b8114610da357600080fd5b50565b600081359050610db581610d8f565b92915050565b600080fd5b600080fd5b7f4e487b7100000000000000000000000000000000000000000000000000000000600052604160045260246000fd5b610dfd82610ab0565b810181811067ffffffffffffffff82111715610e1c57610e1b610dc5565b5b80604052505050565b6000610e2f6109d1565b9050610e3b8282610df4565b919050565b600067ffffffffffffffff821115610e5b57610e5a610dc5565b5b610e6482610ab0565b9050602081019050919050565b82818337600083830152505050565b6000610e93610e8e84610e40565b610e25565b905082815260208101848484011115610eaf57610eae610dc0565b5b610eba848285610e71565b509392505050565b600082601f830112610ed757610ed6610dbb565b5b8135610ee7848260208601610e80565b91505092915050565b600080600080600080600060e0888a031215610f0f57610f0e6109db565b5b6000610f1d8a828b01610da6565b975050602088013567ffffffffffffffff811115610f3e57610f3d6109e0565b5b610f4a8a828b01610ec2565b965050604088013567ffffffffffffffff811115610f6b57610f6a6109e0565b5b610f778a828b01610ec2565b955050606088013567ffffffffffffffff811115610f9857610f976109e0565b5b610fa48a828b01610ec2565b945050608088013567ffffffffffffffff811115610fc557610fc46109e0565b5b610fd18a828b01610ec2565b93505060a088013567ffffffffffffffff811115610ff257610ff16109e0565b5b610ffe8a828b01610ec2565b92505060c088013567ffffffffffffffff81111561101f5761101e6109e0565b5b61102b8a828b01610ec2565b91505092959891949750929550565b7f4e487b7100000000000000000000000000000000000000000000000000000000600052602260045260246000fd5b6000600282049050600182168061108157607f821691505b602082108114156110955761109461103a565b5b5091905056fea26469706673582212200e54c352f0854a78813cb8e472d1c7e3eac72f0c46836b827b07e08be24c530764736f6c634300080a0033",
  "immutableReferences": {},
  "source": "// SPDX-License-Identifier: MIT\r\npragma solidity ^0.8.10;\r\n\r\n// Smart contracts saves the record of new employee with the following details:\r\n// Employee ID, First Name, Last Name, Email Address, Department, and Designation.\r\n// Smart contract allows to the details of employee to be read by supplying\r\n// Employee ID.\r\ncontract EmployeeAttendance {\r\n    \r\n    // Struct for employee data\r\n    struct Employee{\r\n        int empID;\r\n        string userName;\r\n        string firstName;\r\n        string lastName;\r\n        string email;\r\n        string department;\r\n        string designation;\r\n    }\r\n\r\n    // Dynamic struct array to hold all employees data\r\n    // Solidity automatically creates getter for public sotrage arrays\r\n    Employee[] public employees;\r\n\r\n    // Adds an Employee with its details to employees array\r\n    function addEmployee(\r\n        int _empID, \r\n        string memory _userName,\r\n        string memory _firstName,\r\n        string memory _lastName,\r\n        string memory _email,\r\n        string memory _department,\r\n        string memory _designation) public {\r\n        // Add employee to total list\r\n        employees.push(Employee({\r\n            empID: _empID, \r\n            userName: _userName, \r\n            firstName: _firstName,\r\n            lastName: _lastName,\r\n            email: _email,\r\n            department: _department,\r\n            designation: _designation\r\n            }));\r\n    }\r\n\r\n    function getEmployees() public view returns(Employee[] memory){\r\n        return (employees);\r\n    }\r\n}\r\n",
  "sourcePath": "D:\\Softwate Dev Projects\\HR-Blockchain\\client\\src\\blockchain\\contracts\\EmployeeAttendance.sol",
  "compiler": {
    "name": "solc",
    "version": "0.8.10+commit.fc410830.Emscripten.clang"
  },
  "schemaVersion": "3.4.3",
  "updatedAt": "2021-12-11T11:06:28.628Z",
  "networkType": "ethereum",
  "devdoc": {
    "kind": "dev",
    "methods": {},
    "version": 1
  },
  "userdoc": {
    "kind": "user",
    "methods": {},
    "version": 1
  }
}